:100000000C9434000C943E000C943E000C943E0082
:100010000C943E000C943E000C943E000C943E0068
:100020000C943E000C943E000C943E000C943E0058
:100030000C943E000C943E000C943E000C943E0048
:100040000C943E000C943E000C943E000C943E0038
:100050000C943E000C943E000C943E000C943E0028
:100060000C943E000C943E0011241FBECFEFD8E04C
:10007000DEBFCDBF0E947E000C948F000C94000068
:100080002091780030E0EAE7F0E0808180648083AE
:1000900090819923E9F380917900A901582BCA0135
:1000A00008955D985E985F9808958D3221E09207DB
:1000B00008F45D9A9C012C5231402D32314008F4F5
:1000C0005E9A8935924008F05F9A08950E94400038
:1000D0000E9455000E9451000895579A569A559AC9
:1000E000EAE7F0E0808180688083ECE7F0E08081DF
:1000F0008560808380818064808308950E946D0084
:100100005F9A2FE38DE093E0215080409040E1F72B
:1001100000C000000E9451000E946600FDCFF894CC
:02012000FFCF0F
:00000001FF
