:100000000C9434000C9449000C9449000C94490061
:100010000C9449000C9449000C9449000C9449003C
:100020000C9449000C9449000C9449000C9449002C
:100030000C9449000C9449000C9449000C9449001C
:100040000C9449000C9449000C9449000C9449000C
:100050000C9449000C9449000C9449000C944900FC
:100060000C9449000C94490011241FBECFEFD8E036
:10007000DEBFCDBF11E0A0E0B1E0EEEDF0E002C0E8
:1000800005900D92A230B107D9F70E9462000C943E
:100090006D000C940000599A80E197E229E130E06C
:1000A000F9013197F1F70197D9F7599880E197E273
:1000B00029E130E0F9013197F1F70197D9F7089577
:1000C000519A0895519A02C00E944B0080910001FC
:0E00D0008823D1F780E090E00895F894FFCFE8
:0200DE0001001F
:00000001FF
