:100000000C9434000C943E000C943E000C943E0082
:100010000C943E000C943E000C943E000C943E0068
:100020000C943E000C943E000C943E000C943E0058
:100030000C943E000C943E000C943E000C943E0048
:100040000C943E000C943E000C943E000C943E0038
:100050000C943E000C943E000C943E000C943E0028
:100060000C943E000C943E0011241FBECFEFD8E04C
:10007000DEBFCDBF0E9453000C9456000C940000CC
:10008000569A559A84B5806C84BD84B5806384BDCE
:1000900084B5816084BD85B5816085BD82E387BDFF
:1000A00086E988BD08950E944000FFCFF894FFCFF5
:00000001FF
