:100000000C9434000C9449000C9449000C94490061
:100010000C9449000C9449000C9449000C9449003C
:100020000C9449000C9449000C9449000C9449002C
:100030000C9449000C9449000C9449000C9449001C
:100040000C9449000C9449000C9449000C9449000C
:100050000C9449000C9449000C9449000C944900FC
:100060000C9449000C94490011241FBECFEFD8E036
:10007000DEBFCDBF11E0A0E0B1E0E6EEF0E002C0EF
:1000800005900D92A230B107D9F70E9462000C943E
:1000900071000C940000599A2FE38DE093E02150F9
:1000A00080409040E1F700C0000059982FE38DE0B8
:1000B00093E0215080409040E1F700C00000089597
:1000C000519A08950E94600080910001882331F0C8
:1000D0000E944B00809100018111FACF80E090E0F6
:0600E0000895F894FFCF23
:0200E600010017
:00000001FF
