:100000000C9434000C943E000C943E000C943E0082
:100010000C943E000C943E000C943E000C943E0068
:100020000C943E000C943E000C943E000C943E0058
:100030000C943E000C943E000C943E000C943E0048
:100040000C943E000C943E000C943E000C943E0038
:100050000C943E000C943E000C943E000C943E0028
:100060000C943E000C943E0011241FBECFEFD8E04C
:10007000DEBFCDBF0E9478000C947D000C94000080
:10008000259A239A269A229A8CB580648CBD8CB5C9
:1000900080618CBD8CB581608CBD8CB582608CBD5F
:1000A0002E9A2D9A2FE38DE093E0215080409040CE
:1000B000E1F700C0000008952E988EBD0DB407FE34
:1000C000FDCF8EB52E9A2E980895CF93C0E08C2F39
:1000D0000E945C002FE38DE093E02150804090402F
:1000E000E1F700C00000CF5FC03889F7CF910895D5
:0E00F0000E9440000E946500FDCFF894FFCFF3
:00000001FF
